:020000040800F2
:10000000780600206D0100087501000877010008DE
:10001000790100087B0100087D0100080000000054
:100020000000000000000000000000007F01000848
:10003000810100080000000083010008DD0E0008B7
:100040008701000887010008870100088701000870
:100050008701000887010008870100088701000860
:10006000290200084D0200087102000887010008FB
:100070008701000887010008870100088701000840
:100080008701000887010008870100088701000830
:100090008701000887010008870100088701000820
:1000A0008701000887010008870100088701000810
:1000B0008701000887010008870100088701000800
:1000C00087010008870100088701000887010008F0
:1000D00087010008870100088701000887010008E0
:1000E00087010008870100088701000800F002F876
:1000F00000F02CF80AA090E8000C82448344AAF196
:100100000107DA4501D100F021F8AFF2090EBAE893
:100110000F0013F0010F18BFFB1A43F0010318473B
:10012000CC0E0000DC0E0000002300240025002679
:10013000103A28BF78C1FBD8520728BF30C148BF4A
:100140000B6070471FB51FBD10B510BD00F031F832
:100150001146FFF7F7FF00F033FF00F04FF803B44C
:10016000FFF7F2FF03BC00F057F800000948804792
:1001700009480047FEE7FEE7FEE7FEE7FEE7FEE789
:10018000FEE7FEE7FEE7FEE704480549054A064BA1
:1001900070470000590F0008ED00000878000020AB
:1001A000780600207802002078020020704770470F
:1001B0007047754600F02CF8AE4605006946534678
:1001C00020F00700854618B020B5FFF7DDFFBDE839
:1001D00020404FF000064FF000074FF000084FF0AE
:1001E000000BAC46ACE8C009ACE8C009ACE8C009FB
:1001F000ACE8C00921F007018D46704710B50446F0
:10020000AFF300802046BDE81040FFF7A8BF000014
:10021000004870470000002001491820ABBEFEE7EF
:10022000260002007047000080B540F26000C2F274
:100230000000006838B1FFE740F26000C2F2000041
:100240000068804700E0FFE780BD000080B540F215
:100250006400C2F20000006838B1FFE740F26400B9
:10026000C2F200000068804700E0FFE780BD0000A8
:1002700080B540F26800C2F20000006838B1FFE7C4
:1002800040F26800C2F200000068804700E0FFE72B
:1002900080BD000087B08DF81B008DF81A108DF816
:1002A00019209DF81900142840F0C980FFE79DF837
:1002B0001B000146059140B1FFE70598012841D098
:1002C000FFE7059802287AD0B6E09DF81A100120C1
:1002D00000FA01F240F60C01C4F201010868104373
:1002E00008609DF81A0007280EDCFFE79DF81A0049
:1002F0008100052000FA01F240F60001C4F201017C
:100300000868104308601CE09DF81A00082816DBF6
:10031000FFE79DF81A000E2811DCFFE79DF81A1080
:100320006FF01F0000EB8101052000FA01F240F69A
:100330000401C4F2010108681043086000E0FFE70F
:10034000FFE77AE09DF81A10012000FA01F240F66A
:100350000C41C4F201010868104308609DF81A00BE
:1003600007280EDCFFE79DF81A008100052000FA3F
:1003700001F240F60041C4F2010108681043086030
:100380001CE09DF81A00082816DBFFE79DF81A000C
:100390000E2811DCFFE79DF81A106FF01F0000EB2C
:1003A0008101052000FA01F240F60441C4F2010186
:1003B00008681043086000E0FFE7FFE73DE09DF8B4
:1003C0001A10012000FA01F241F20C01C4F20101FD
:1003D0000868104308609DF81A0007280EDCFFE744
:1003E0009DF81A008100052000FA01F241F2000197
:1003F000C4F201010868104308601CE09DF81A006F
:10040000082816DBFFE79DF81A000E2811DCFFE72D
:100410009DF81A106FF01F0000EB8101052000FA13
:1004200001F241F20401C4F20101086810430860BE
:1004300000E0FFE7FFE700E0FFE700F0C8BB9DF842
:1004400019001E2840F0C880FFE79DF81B000146F8
:10045000049140B1FFE70498012841D0FFE70498D8
:1004600002287AD0B6E09DF81A10012000FA01F2B5
:1004700040F60C01C4F201010868904308609DF841
:100480001A0007280EDCFFE79DF81A0081000520FE
:1004900000FA01F240F60001C4F2010108681043BD
:1004A00008601CE09DF81A00082816DBFFE79DF89D
:1004B0001A000E2811DCFFE79DF81A106FF01F00DC
:1004C00000EB8101052000FA01F240F60401C4F2BC
:1004D000010108681043086000E0FFE7FFE77AE0E9
:1004E0009DF81A10012000FA01F240F60C41C4F206
:1004F00001010868904308609DF81A0007280EDC87
:10050000FFE79DF81A008100052000FA01F240F68D
:100510000041C4F201010868104308601CE09DF826
:100520001A00082816DBFFE79DF81A000E2811DCD8
:10053000FFE79DF81A106FF01F0000EB8101052006
:1005400000FA01F240F60441C4F2010108681043C8
:10055000086000E0FFE7FFE73DE09DF81A1001208A
:1005600000FA01F241F20C01C4F201010868904363
:1005700008609DF81A0007280EDCFFE79DF81A00B6
:100580008100052000FA01F241F20001C4F20101EC
:100590000868104308601CE09DF81A00082816DB64
:1005A000FFE79DF81A000E2811DCFFE79DF81A10EE
:1005B0006FF01F0000EB8101052000FA01F241F20B
:1005C0000401C4F2010108681043086000E0FFE77D
:1005D000FFE700E0FFE7F9E29DF81B000146039109
:1005E00050B1FFE70398012800F0FE80FFE7039871
:1005F000022800F0F181E7E29DF81A00014602911D
:100600000F2800F2EF800299DFE801F00813223191
:10061000404F5E6D7A8594A3B2C1D0DF9DF819205A
:1006200040F60001C4F20101086862F303000860AB
:10063000D9E09DF8192040F60001C4F201010868D4
:1006400002F00F0220F0F00040EA02100860CAE059
:100650009DF8192040F60001C4F20101086802F07B
:100660000F0220F4706040EA02200860BBE09DF8B1
:10067000192040F60001C4F20101086802F00F02DF
:1006800020F4704040EA02300860ACE09DF8192088
:1006900040F60001C4F20101086802F00F0220F4E4
:1006A000702040EA024008609DE09DF8192040F665
:1006B0000001C4F20101086802F00F0220F470008A
:1006C00040EA025008608EE09DF8192040F60001D3
:1006D000C4F20101086802F00F0220F0706040EAE5
:1006E000026008607FE09DF8192040F60001C4F226
:1006F0000101086820F0704040EA0270086072E072
:100700009DF8192040F60401C4F20101086862F363
:100710000300086067E09DF8192040F60401C4F268
:100720000101086802F00F0220F0F00040EA021018
:10073000086058E09DF8192040F60401C4F2010158
:10074000086802F00F0220F4706040EA022008609E
:1007500049E09DF8192040F60401C4F2010108683F
:1007600002F00F0220F4704040EA023008603AE0E4
:100770009DF8192040F60401C4F20101086802F056
:100780000F0220F4702040EA024008602BE09DF840
:10079000192040F60401C4F20101086802F00F02BA
:1007A00020F4700040EA025008601CE09DF8192017
:1007B00040F60401C4F20101086802F00F0220F0C3
:1007C000706040EA026008600DE09DF8192040F674
:1007D0000401C4F20101086820F0704040EA027090
:1007E000086000E0FFE7F0E19DF81A000146019182
:1007F0000F2800F2EF800199DFE801F008132231A1
:10080000404F5E6D7A8594A3B2C1D0DF9DF8192068
:1008100040F60041C4F20101086862F30300086079
:10082000D9E09DF8192040F60041C4F201010868A2
:1008300002F00F0220F0F00040EA02100860CAE067
:100840009DF8192040F60041C4F20101086802F049
:100850000F0220F4706040EA02200860BBE09DF8BF
:10086000192040F60041C4F20101086802F00F02AD
:1008700020F4704040EA02300860ACE09DF8192096
:1008800040F60041C4F20101086802F00F0220F4B2
:10089000702040EA024008609DE09DF8192040F673
:1008A0000041C4F20101086802F00F0220F4700058
:1008B00040EA025008608EE09DF8192040F60041A1
:1008C000C4F20101086802F00F0220F0706040EAF3
:1008D000026008607FE09DF8192040F60041C4F2F4
:1008E0000101086820F0704040EA0270086072E080
:1008F0009DF8192040F60441C4F20101086862F332
:100900000300086067E09DF8192040F60441C4F236
:100910000101086802F00F0220F0F00040EA021026
:10092000086058E09DF8192040F60441C4F2010126
:10093000086802F00F0220F4706040EA02200860AC
:1009400049E09DF8192040F60441C4F2010108680D
:1009500002F00F0220F4704040EA023008603AE0F2
:100960009DF8192040F60441C4F20101086802F024
:100970000F0220F4702040EA024008602BE09DF84E
:10098000192040F60441C4F20101086802F00F0288
:1009900020F4700040EA025008601CE09DF8192025
:1009A00040F60441C4F20101086802F00F0220F091
:1009B000706040EA026008600DE09DF8192040F682
:1009C0000441C4F20101086820F0704040EA02705E
:1009D000086000E0FFE7F8E09DF81A00014600918A
:1009E0000F2800F2EF800099DFE801F008132231B0
:1009F000404F5E6D7A8594A3B2C1D0DF9DF8192077
:100A000041F20001C4F20101086862F303000860CA
:100A1000D9E09DF8192041F20001C4F201010868F3
:100A200002F00F0220F0F00040EA02100860CAE075
:100A30009DF8192041F20001C4F20101086802F09A
:100A40000F0220F4706040EA02200860BBE09DF8CD
:100A5000192041F20001C4F20101086802F00F02FE
:100A600020F4704040EA02300860ACE09DF81920A4
:100A700041F20001C4F20101086802F00F0220F403
:100A8000702040EA024008609DE09DF8192041F284
:100A90000001C4F20101086802F00F0220F47000A6
:100AA00040EA025008608EE09DF8192041F20001F2
:100AB000C4F20101086802F00F0220F0706040EA01
:100AC000026008607FE09DF8192041F20001C4F245
:100AD0000101086820F0704040EA0270086072E08E
:100AE0009DF8192041F20401C4F20101086862F383
:100AF0000300086067E09DF8192041F20401C4F288
:100B00000101086802F00F0220F0F00040EA021034
:100B1000086058E09DF8192041F20401C4F2010177
:100B2000086802F00F0220F4706040EA02200860BA
:100B300049E09DF8192041F20401C4F2010108685E
:100B400002F00F0220F4704040EA023008603AE000
:100B50009DF8192041F20401C4F20101086802F075
:100B60000F0220F4702040EA024008602BE09DF85C
:100B7000192041F20401C4F20101086802F00F02D9
:100B800020F4700040EA025008601CE09DF8192033
:100B900041F20401C4F20101086802F00F0220F0E2
:100BA000706040EA026008600DE09DF8192041F293
:100BB0000401C4F20101086820F0704040EA0270AC
:100BC000086000E0FFE700E0FFE7FFE7FFE707B0AE
:100BD0007047000082B08DF807008DF806109DF870
:100BE00007000146009140B1FFE7009801280ED0B0
:100BF000FFE70098022814D01DE09DF806100120A0
:100C0000884040F61001C4F20101086014E09DF82C
:100C100006100120884040F61001C4F2010108606E
:100C20000AE09DF806100120884040F61001C4F249
:100C30000101086000E0FFE702B0704782B08DF864
:100C400007009DF8070001460091062845D8009945
:100C5000DFE801F0040D161F31283A0041F21801B7
:100C6000C4F20201086840F00400086036E041F276
:100C70001801C4F20201086840F0080008602DE085
:100C800041F21801C4F20201086840F01000086047
:100C900024E041F21801C4F20201086840F4007037
:100CA00008601BE041F21801C4F20201086840F438
:100CB0008050086012E041F21801C4F20201086895
:100CC00040F48010086009E041F21801C4F202010A
:100CD000086840F48040086000E0FFE702B0704719
:100CE00083B041F20401C4F20201019100200860C6
:100CF00081200860086820F0F0000860086820F48F
:100D0000E0600860086820F460500860086840F4FB
:100D10004040086041F20001C4F20201086840F45A
:100D200080300860C8208DF80B00FFE741F200001A
:100D3000C4F202000068410C0020C907009039B9D4
:100D4000FFE79DF80B00002818BF01200090FFE787
:100D50000098C00730B1FFE79DF80B0001388DF80F
:100D60000B00E3E741F20001C4F20201086840F41D
:100D700000300860086820F48020086041F2040117
:100D8000C4F202010868012262F30100086003B0A6
:100D9000704700004EF21001CEF20001086820F00A
:100DA00001000860086820F0020008607047000039
:100DB00080B500F001F880BD84B00020039002905F
:100DC00041F20001C4F20201086840F4803008607A
:100DD000FFE741F20000C4F20200006800F40030B6
:100DE0000290039801300390FFE7029900200190E0
:100DF00039B9FFE70398B0F5A06018BF0120019052
:100E0000FFE70198C0070028E3D1FFE741F20000A7
:100E1000C4F2020000688003002803D5FFE7012028
:100E2000029002E000200290FFE70298012851D1D1
:100E3000FFE742F20001C4F20201086840F010002E
:100E40000860086820F007000860086840F00200A9
:100E5000086041F20401C4F20201009108680860D0
:100E600008680860086840F480600860086820F43A
:100E70007C100860086840F4E810086041F2000146
:100E8000C4F20201086840F080700860FFE741F298
:100E90000000C4F2020000688001002801D4FFE7CE
:100EA000F5E741F20401C4F20201086820F00300F2
:100EB0000860086840F002000860FFE741F20400A3
:100EC000C4F20200006800F00C00082801D0FFE71F
:100ED000F4E700E0FFE704B07047000080B582B09F
:100EE0004EF21400CEF20000006840F27401C2F22B
:100EF0000001086040F26C00C2F20000006838B3E4
:100F0000FFE740F27000C2F20000007801280DD126
:100F1000FFE740F26C00C2F20000019000688047D9
:100F2000019900200860FFF735FF10E040F27000E3
:100F3000C2F200000078022807D1FFE740F26C00FF
:100F4000C2F200000068804700E0FFE7FFE700E032
:100F5000FFE702B080BD000080B541F20002C4F29C
:100F60000202106840F00100106041F20401C4F276
:100F7000020108680023CFF6FF03184008601068DC
:100F80004FF6FF73CFF6F66318401060106820F438
:100F900080201060086820F4FE00086041F208011B
:100FA000C4F202014FF41F000860FFF701FF4EF684
:100FB0000851CEF200014FF00060086080BD0000D3
:100FC00080B582B0002000900190FFF789FE009864
:100FD000FFF734FE009902220846FFF75BF9FFE7AE
:100FE00000210846FFF7F6FDFAE70000FC0F0008B5
:0C0FF00000000020780600002801000826
:040000050800016D81
:00000001FF
